{
  "_format": "hh-sol-artifact-1",
  "contractName": "NFTMarketplace",
  "sourceName": "contracts/NFTMarketplace.sol",
  "abi": [
    {
      "inputs": [],
      "stateMutability": "nonpayable",
      "type": "constructor"
    },
    {
      "anonymous": false,
      "inputs": [
        {
          "indexed": true,
          "internalType": "address",
          "name": "owner",
          "type": "address"
        },
        {
          "indexed": true,
          "internalType": "address",
          "name": "approved",
          "type": "address"
        },
        {
          "indexed": true,
          "internalType": "uint256",
          "name": "tokenId",
          "type": "uint256"
        }
      ],
      "name": "Approval",
      "type": "event"
    },
    {
      "anonymous": false,
      "inputs": [
        {
          "indexed": true,
          "internalType": "address",
          "name": "owner",
          "type": "address"
        },
        {
          "indexed": true,
          "internalType": "address",
          "name": "operator",
          "type": "address"
        },
        {
          "indexed": false,
          "internalType": "bool",
          "name": "approved",
          "type": "bool"
        }
      ],
      "name": "ApprovalForAll",
      "type": "event"
    },
    {
      "anonymous": false,
      "inputs": [
        {
          "indexed": true,
          "internalType": "address",
          "name": "from",
          "type": "address"
        },
        {
          "indexed": true,
          "internalType": "address",
          "name": "to",
          "type": "address"
        },
        {
          "indexed": true,
          "internalType": "uint256",
          "name": "tokenId",
          "type": "uint256"
        }
      ],
      "name": "Transfer",
      "type": "event"
    },
    {
      "anonymous": false,
      "inputs": [
        {
          "indexed": true,
          "internalType": "uint256",
          "name": "tokenId",
          "type": "uint256"
        },
        {
          "indexed": false,
          "internalType": "address",
          "name": "seller",
          "type": "address"
        },
        {
          "indexed": false,
          "internalType": "address",
          "name": "owner",
          "type": "address"
        },
        {
          "indexed": false,
          "internalType": "uint256",
          "name": "price",
          "type": "uint256"
        },
        {
          "indexed": false,
          "internalType": "bool",
          "name": "sold",
          "type": "bool"
        }
      ],
      "name": "idMarketItemCreated",
      "type": "event"
    },
    {
      "inputs": [
        {
          "internalType": "address",
          "name": "to",
          "type": "address"
        },
        {
          "internalType": "uint256",
          "name": "tokenId",
          "type": "uint256"
        }
      ],
      "name": "approve",
      "outputs": [],
      "stateMutability": "nonpayable",
      "type": "function"
    },
    {
      "inputs": [
        {
          "internalType": "address",
          "name": "owner",
          "type": "address"
        }
      ],
      "name": "balanceOf",
      "outputs": [
        {
          "internalType": "uint256",
          "name": "",
          "type": "uint256"
        }
      ],
      "stateMutability": "view",
      "type": "function"
    },
    {
      "inputs": [
        {
          "internalType": "uint256",
          "name": "tokenId",
          "type": "uint256"
        }
      ],
      "name": "createMarketSale",
      "outputs": [],
      "stateMutability": "payable",
      "type": "function"
    },
    {
      "inputs": [
        {
          "internalType": "string",
          "name": "tokenURI",
          "type": "string"
        },
        {
          "internalType": "uint256",
          "name": "price",
          "type": "uint256"
        }
      ],
      "name": "createToken",
      "outputs": [
        {
          "internalType": "uint256",
          "name": "",
          "type": "uint256"
        }
      ],
      "stateMutability": "payable",
      "type": "function"
    },
    {
      "inputs": [],
      "name": "fetchItemsListed",
      "outputs": [
        {
          "components": [
            {
              "internalType": "uint256",
              "name": "tokenId",
              "type": "uint256"
            },
            {
              "internalType": "address payable",
              "name": "seller",
              "type": "address"
            },
            {
              "internalType": "address payable",
              "name": "owner",
              "type": "address"
            },
            {
              "internalType": "uint256",
              "name": "price",
              "type": "uint256"
            },
            {
              "internalType": "bool",
              "name": "sold",
              "type": "bool"
            }
          ],
          "internalType": "struct NFTMarketplace.MarketItem[]",
          "name": "",
          "type": "tuple[]"
        }
      ],
      "stateMutability": "view",
      "type": "function"
    },
    {
      "inputs": [],
      "name": "fetchMarketItem",
      "outputs": [
        {
          "components": [
            {
              "internalType": "uint256",
              "name": "tokenId",
              "type": "uint256"
            },
            {
              "internalType": "address payable",
              "name": "seller",
              "type": "address"
            },
            {
              "internalType": "address payable",
              "name": "owner",
              "type": "address"
            },
            {
              "internalType": "uint256",
              "name": "price",
              "type": "uint256"
            },
            {
              "internalType": "bool",
              "name": "sold",
              "type": "bool"
            }
          ],
          "internalType": "struct NFTMarketplace.MarketItem[]",
          "name": "",
          "type": "tuple[]"
        }
      ],
      "stateMutability": "view",
      "type": "function"
    },
    {
      "inputs": [],
      "name": "fetchMyNFT",
      "outputs": [
        {
          "components": [
            {
              "internalType": "uint256",
              "name": "tokenId",
              "type": "uint256"
            },
            {
              "internalType": "address payable",
              "name": "seller",
              "type": "address"
            },
            {
              "internalType": "address payable",
              "name": "owner",
              "type": "address"
            },
            {
              "internalType": "uint256",
              "name": "price",
              "type": "uint256"
            },
            {
              "internalType": "bool",
              "name": "sold",
              "type": "bool"
            }
          ],
          "internalType": "struct NFTMarketplace.MarketItem[]",
          "name": "",
          "type": "tuple[]"
        }
      ],
      "stateMutability": "view",
      "type": "function"
    },
    {
      "inputs": [
        {
          "internalType": "uint256",
          "name": "tokenId",
          "type": "uint256"
        }
      ],
      "name": "getApproved",
      "outputs": [
        {
          "internalType": "address",
          "name": "",
          "type": "address"
        }
      ],
      "stateMutability": "view",
      "type": "function"
    },
    {
      "inputs": [],
      "name": "getListingPrice",
      "outputs": [
        {
          "internalType": "uint256",
          "name": "",
          "type": "uint256"
        }
      ],
      "stateMutability": "view",
      "type": "function"
    },
    {
      "inputs": [
        {
          "internalType": "address",
          "name": "owner",
          "type": "address"
        },
        {
          "internalType": "address",
          "name": "operator",
          "type": "address"
        }
      ],
      "name": "isApprovedForAll",
      "outputs": [
        {
          "internalType": "bool",
          "name": "",
          "type": "bool"
        }
      ],
      "stateMutability": "view",
      "type": "function"
    },
    {
      "inputs": [],
      "name": "name",
      "outputs": [
        {
          "internalType": "string",
          "name": "",
          "type": "string"
        }
      ],
      "stateMutability": "view",
      "type": "function"
    },
    {
      "inputs": [
        {
          "internalType": "uint256",
          "name": "tokenId",
          "type": "uint256"
        }
      ],
      "name": "ownerOf",
      "outputs": [
        {
          "internalType": "address",
          "name": "",
          "type": "address"
        }
      ],
      "stateMutability": "view",
      "type": "function"
    },
    {
      "inputs": [
        {
          "internalType": "uint256",
          "name": "tokenId",
          "type": "uint256"
        },
        {
          "internalType": "uint256",
          "name": "price",
          "type": "uint256"
        }
      ],
      "name": "reSellToken",
      "outputs": [],
      "stateMutability": "payable",
      "type": "function"
    },
    {
      "inputs": [
        {
          "internalType": "address",
          "name": "from",
          "type": "address"
        },
        {
          "internalType": "address",
          "name": "to",
          "type": "address"
        },
        {
          "internalType": "uint256",
          "name": "tokenId",
          "type": "uint256"
        }
      ],
      "name": "safeTransferFrom",
      "outputs": [],
      "stateMutability": "nonpayable",
      "type": "function"
    },
    {
      "inputs": [
        {
          "internalType": "address",
          "name": "from",
          "type": "address"
        },
        {
          "internalType": "address",
          "name": "to",
          "type": "address"
        },
        {
          "internalType": "uint256",
          "name": "tokenId",
          "type": "uint256"
        },
        {
          "internalType": "bytes",
          "name": "data",
          "type": "bytes"
        }
      ],
      "name": "safeTransferFrom",
      "outputs": [],
      "stateMutability": "nonpayable",
      "type": "function"
    },
    {
      "inputs": [
        {
          "internalType": "address",
          "name": "operator",
          "type": "address"
        },
        {
          "internalType": "bool",
          "name": "approved",
          "type": "bool"
        }
      ],
      "name": "setApprovalForAll",
      "outputs": [],
      "stateMutability": "nonpayable",
      "type": "function"
    },
    {
      "inputs": [
        {
          "internalType": "bytes4",
          "name": "interfaceId",
          "type": "bytes4"
        }
      ],
      "name": "supportsInterface",
      "outputs": [
        {
          "internalType": "bool",
          "name": "",
          "type": "bool"
        }
      ],
      "stateMutability": "view",
      "type": "function"
    },
    {
      "inputs": [],
      "name": "symbol",
      "outputs": [
        {
          "internalType": "string",
          "name": "",
          "type": "string"
        }
      ],
      "stateMutability": "view",
      "type": "function"
    },
    {
      "inputs": [
        {
          "internalType": "uint256",
          "name": "tokenId",
          "type": "uint256"
        }
      ],
      "name": "tokenURI",
      "outputs": [
        {
          "internalType": "string",
          "name": "",
          "type": "string"
        }
      ],
      "stateMutability": "view",
      "type": "function"
    },
    {
      "inputs": [
        {
          "internalType": "address",
          "name": "from",
          "type": "address"
        },
        {
          "internalType": "address",
          "name": "to",
          "type": "address"
        },
        {
          "internalType": "uint256",
          "name": "tokenId",
          "type": "uint256"
        }
      ],
      "name": "transferFrom",
      "outputs": [],
      "stateMutability": "nonpayable",
      "type": "function"
    },
    {
      "inputs": [
        {
          "internalType": "uint256",
          "name": "_listingPrice",
          "type": "uint256"
        }
      ],
      "name": "updateListingPrice",
      "outputs": [],
      "stateMutability": "payable",
      "type": "function"
    },
    {
      "inputs": [],
      "name": "withdraw",
      "outputs": [],
      "stateMutability": "nonpayable",
      "type": "function"
    }
  ],
  "bytecode": "0x60806040526605543df729c0006009553480156200001c57600080fd5b506040518060400160405280601381526020017f4e4654204d657461766172736520546f6b656e000000000000000000000000008152506040518060400160405280600581526020017f4d594e465400000000000000000000000000000000000000000000000000000081525081600090816200009a919062000355565b508060019081620000ac919062000355565b5050503373ffffffffffffffffffffffffffffffffffffffff16600a60009054906101000a905050506200043c565b600081519050919050565b7f4e487b7100000000000000000000000000000000000000000000000000000000600052604160045260246000fd5b7f4e487b7100000000000000000000000000000000000000000000000000000000600052602260045260246000fd5b600060028204905060018216806200015d57607f821691505b60208210810362000173576200017262000115565b5b50919050565b60008190508160005260206000209050919050565b60006020601f8301049050919050565b600082821b905092915050565b600060088302620001dd7fffffffffffffffffffffffffffffffffffffffffffffffffffffffffffffffff826200019e565b620001e986836200019e565b95508019841693508086168417925050509392505050565b6000819050919050565b6000819050919050565b600062000236620002306200022a8462000201565b6200020b565b62000201565b9050919050565b6000819050919050565b620002528362000215565b6200026a62000261826200023d565b848454620001ab565b825550505050565b600090565b6200028162000272565b6200028e81848462000247565b505050565b5b81811015620002b657620002aa60008262000277565b60018101905062000294565b5050565b601f8211156200030557620002cf8162000179565b620002da846200018e565b81016020851015620002ea578190505b62000302620002f9856200018e565b83018262000293565b50505b505050565b600082821c905092915050565b60006200032a600019846008026200030a565b1980831691505092915050565b600062000345838362000317565b9150826002028217905092915050565b6200036082620000db565b67ffffffffffffffff8111156200037c576200037b620000e6565b5b62000388825462000144565b62000395828285620002ba565b600060209050601f831160018114620003cd5760008415620003b8578287015190505b620003c4858262000337565b86555062000434565b601f198416620003dd8662000179565b60005b828110156200040757848901518255600182019150602085019450602081019050620003e0565b8683101562000427578489015162000423601f89168262000317565b8355505b6001600288020188555050505b505050505050565b6145fe806200044c6000396000f3fe6080604052600436106101355760003560e01c806372b3b620116100ab578063ae677aa31161006f578063ae677aa31461040c578063b88d4fde14610428578063be9af53614610451578063c18763f71461046d578063c87b56dd14610498578063e985e9c5146104d557610135565b806372b3b6201461034157806385535b25146103715780638fafd0211461038d57806395d89b41146103b8578063a22cb465146103e357610135565b806323b872dd116100fd57806323b872dd146102335780633ccfd60b1461025c57806342842e0e1461027357806345f8fa801461029c5780636352211e146102c757806370a082311461030457610135565b806301ffc9a71461013a57806306fdde0314610177578063081812fc146101a2578063095ea7b3146101df57806312e8558514610208575b600080fd5b34801561014657600080fd5b50610161600480360381019061015c9190612d7e565b610512565b60405161016e9190612dc6565b60405180910390f35b34801561018357600080fd5b5061018c6105f4565b6040516101999190612e71565b60405180910390f35b3480156101ae57600080fd5b506101c960048036038101906101c49190612ec9565b610686565b6040516101d69190612f37565b60405180910390f35b3480156101eb57600080fd5b5061020660048036038101906102019190612f7e565b6106cc565b005b34801561021457600080fd5b5061021d6107e3565b60405161022a9190612fcd565b60405180910390f35b34801561023f57600080fd5b5061025a60048036038101906102559190612fe8565b6107ed565b005b34801561026857600080fd5b5061027161084d565b005b34801561027f57600080fd5b5061029a60048036038101906102959190612fe8565b610992565b005b3480156102a857600080fd5b506102b16109b2565b6040516102be9190613191565b60405180910390f35b3480156102d357600080fd5b506102ee60048036038101906102e99190612ec9565b610c9e565b6040516102fb9190612f37565b60405180910390f35b34801561031057600080fd5b5061032b600480360381019061032691906131b3565b610d24565b6040516103389190612fcd565b60405180910390f35b61035b60048036038101906103569190613315565b610ddb565b6040516103689190612fcd565b60405180910390f35b61038b60048036038101906103869190613371565b610e1d565b005b34801561039957600080fd5b506103a2611012565b6040516103af9190613191565b60405180910390f35b3480156103c457600080fd5b506103cd61127a565b6040516103da9190612e71565b60405180910390f35b3480156103ef57600080fd5b5061040a600480360381019061040591906133dd565b61130c565b005b61042660048036038101906104219190612ec9565b611322565b005b34801561043457600080fd5b5061044f600480360381019061044a91906134be565b6113bc565b005b61046b60048036038101906104669190612ec9565b61141e565b005b34801561047957600080fd5b50610482611656565b60405161048f9190613191565b60405180910390f35b3480156104a457600080fd5b506104bf60048036038101906104ba9190612ec9565b611942565b6040516104cc9190612e71565b60405180910390f35b3480156104e157600080fd5b506104fc60048036038101906104f79190613541565b611a54565b6040516105099190612dc6565b60405180910390f35b60007f80ac58cd000000000000000000000000000000000000000000000000000000007bffffffffffffffffffffffffffffffffffffffffffffffffffffffff1916827bffffffffffffffffffffffffffffffffffffffffffffffffffffffff191614806105dd57507f5b5e139f000000000000000000000000000000000000000000000000000000007bffffffffffffffffffffffffffffffffffffffffffffffffffffffff1916827bffffffffffffffffffffffffffffffffffffffffffffffffffffffff1916145b806105ed57506105ec82611ae8565b5b9050919050565b606060008054610603906135b0565b80601f016020809104026020016040519081016040528092919081815260200182805461062f906135b0565b801561067c5780601f106106515761010080835404028352916020019161067c565b820191906000526020600020905b81548152906001019060200180831161065f57829003601f168201915b5050505050905090565b600061069182611b52565b6004600083815260200190815260200160002060009054906101000a900473ffffffffffffffffffffffffffffffffffffffff169050919050565b60006106d782610c9e565b90508073ffffffffffffffffffffffffffffffffffffffff168373ffffffffffffffffffffffffffffffffffffffff1603610747576040517f08c379a000000000000000000000000000000000000000000000000000000000815260040161073e90613653565b60405180910390fd5b8073ffffffffffffffffffffffffffffffffffffffff16610766611b9d565b73ffffffffffffffffffffffffffffffffffffffff16148061079557506107948161078f611b9d565b611a54565b5b6107d4576040517f08c379a00000000000000000000000000000000000000000000000000000000081526004016107cb906136e5565b60405180910390fd5b6107de8383611ba5565b505050565b6000600954905090565b6107fe6107f8611b9d565b82611c5e565b61083d576040517f08c379a000000000000000000000000000000000000000000000000000000000815260040161083490613777565b60405180910390fd5b610848838383611cf3565b505050565b600a60009054906101000a900473ffffffffffffffffffffffffffffffffffffffff1673ffffffffffffffffffffffffffffffffffffffff163373ffffffffffffffffffffffffffffffffffffffff16146108dd576040517f08c379a00000000000000000000000000000000000000000000000000000000081526004016108d490613809565b60405180910390fd5b600047905060003373ffffffffffffffffffffffffffffffffffffffff16826040516109089061385a565b60006040518083038185875af1925050503d8060008114610945576040519150601f19603f3d011682016040523d82523d6000602084013e61094a565b606091505b505090508061098e576040517f08c379a0000000000000000000000000000000000000000000000000000000008152600401610985906138bb565b60405180910390fd5b5050565b6109ad838383604051806020016040528060008152506113bc565b505050565b606060006109c06007611fec565b905060008060005b83811015610a68573373ffffffffffffffffffffffffffffffffffffffff16600b60006001846109f8919061390a565b815260200190815260200160002060010160009054906101000a900473ffffffffffffffffffffffffffffffffffffffff1673ffffffffffffffffffffffffffffffffffffffff1603610a5557600183610a52919061390a565b92505b8080610a609061393e565b9150506109c8565b5060008267ffffffffffffffff811115610a8557610a846131ea565b5b604051908082528060200260200182016040528015610abe57816020015b610aab612cb5565b815260200190600190039081610aa35790505b50905060005b84811015610c93573373ffffffffffffffffffffffffffffffffffffffff16600b6000600184610af4919061390a565b815260200190815260200160002060010160009054906101000a900473ffffffffffffffffffffffffffffffffffffffff1673ffffffffffffffffffffffffffffffffffffffff1603610c80576000600182610b50919061390a565b90506000600b60008381526020019081526020016000209050806040518060a0016040529081600082015481526020016001820160009054906101000a900473ffffffffffffffffffffffffffffffffffffffff1673ffffffffffffffffffffffffffffffffffffffff1673ffffffffffffffffffffffffffffffffffffffff1681526020016002820160009054906101000a900473ffffffffffffffffffffffffffffffffffffffff1673ffffffffffffffffffffffffffffffffffffffff1673ffffffffffffffffffffffffffffffffffffffff168152602001600382015481526020016004820160009054906101000a900460ff161515151581525050848681518110610c6357610c62613986565b5b6020026020010181905250600185610c7b919061390a565b945050505b8080610c8b9061393e565b915050610ac4565b508094505050505090565b600080610caa83611ffa565b9050600073ffffffffffffffffffffffffffffffffffffffff168173ffffffffffffffffffffffffffffffffffffffff1603610d1b576040517f08c379a0000000000000000000000000000000000000000000000000000000008152600401610d1290613a01565b60405180910390fd5b80915050919050565b60008073ffffffffffffffffffffffffffffffffffffffff168273ffffffffffffffffffffffffffffffffffffffff1603610d94576040517f08c379a0000000000000000000000000000000000000000000000000000000008152600401610d8b90613a93565b60405180910390fd5b600360008373ffffffffffffffffffffffffffffffffffffffff1673ffffffffffffffffffffffffffffffffffffffff168152602001908152602001600020549050919050565b6000610de76007612037565b6000610df36007611fec565b9050610dff338261204d565b610e09818561226a565b610e1381846122d7565b8091505092915050565b3373ffffffffffffffffffffffffffffffffffffffff16600b600084815260200190815260200160002060020160009054906101000a900473ffffffffffffffffffffffffffffffffffffffff1673ffffffffffffffffffffffffffffffffffffffff1614610ec1576040517f08c379a0000000000000000000000000000000000000000000000000000000008152600401610eb890613b25565b60405180910390fd5b6009543414610f05576040517f08c379a0000000000000000000000000000000000000000000000000000000008152600401610efc90613bb7565b60405180910390fd5b6000600b600084815260200190815260200160002060040160006101000a81548160ff02191690831515021790555080600b60008481526020019081526020016000206003018190555033600b600084815260200190815260200160002060010160006101000a81548173ffffffffffffffffffffffffffffffffffffffff021916908373ffffffffffffffffffffffffffffffffffffffff16021790555030600b600084815260200190815260200160002060020160006101000a81548173ffffffffffffffffffffffffffffffffffffffff021916908373ffffffffffffffffffffffffffffffffffffffff16021790555061100360086124da565b61100e333084611cf3565b5050565b606060006110206007611fec565b9050600061102e6008611fec565b6110386007611fec565b6110429190613bd7565b90506000808267ffffffffffffffff811115611061576110606131ea565b5b60405190808252806020026020018201604052801561109a57816020015b611087612cb5565b81526020019060019003908161107f5790505b50905060005b8481101561126f573073ffffffffffffffffffffffffffffffffffffffff16600b60006001846110d0919061390a565b815260200190815260200160002060020160009054906101000a900473ffffffffffffffffffffffffffffffffffffffff1673ffffffffffffffffffffffffffffffffffffffff160361125c57600060018261112c919061390a565b90506000600b60008381526020019081526020016000209050806040518060a0016040529081600082015481526020016001820160009054906101000a900473ffffffffffffffffffffffffffffffffffffffff1673ffffffffffffffffffffffffffffffffffffffff1673ffffffffffffffffffffffffffffffffffffffff1681526020016002820160009054906101000a900473ffffffffffffffffffffffffffffffffffffffff1673ffffffffffffffffffffffffffffffffffffffff1673ffffffffffffffffffffffffffffffffffffffff168152602001600382015481526020016004820160009054906101000a900460ff16151515158152505084868151811061123f5761123e613986565b5b6020026020010181905250600185611257919061390a565b945050505b80806112679061393e565b9150506110a0565b508094505050505090565b606060018054611289906135b0565b80601f01602080910402602001604051908101604052809291908181526020018280546112b5906135b0565b80156113025780601f106112d757610100808354040283529160200191611302565b820191906000526020600020905b8154815290600101906020018083116112e557829003601f168201915b5050505050905090565b61131e611317611b9d565b8383612536565b5050565b600a60009054906101000a900473ffffffffffffffffffffffffffffffffffffffff1673ffffffffffffffffffffffffffffffffffffffff163373ffffffffffffffffffffffffffffffffffffffff16146113b2576040517f08c379a00000000000000000000000000000000000000000000000000000000081526004016113a990613809565b60405180910390fd5b8060098190555050565b6113cd6113c7611b9d565b83611c5e565b61140c576040517f08c379a000000000000000000000000000000000000000000000000000000000815260040161140390613777565b60405180910390fd5b611418848484846126a2565b50505050565b6000600b600083815260200190815260200160002060030154905080341461147b576040517f08c379a000000000000000000000000000000000000000000000000000000000815260040161147290613c7d565b60405180910390fd5b33600b600084815260200190815260200160002060020160006101000a81548173ffffffffffffffffffffffffffffffffffffffff021916908373ffffffffffffffffffffffffffffffffffffffff1602179055506001600b600084815260200190815260200160002060040160006101000a81548160ff0219169083151502179055506000600b600084815260200190815260200160002060020160006101000a81548173ffffffffffffffffffffffffffffffffffffffff021916908373ffffffffffffffffffffffffffffffffffffffff16021790555061155f6008612037565b61156a303384611cf3565b600a60009054906101000a900473ffffffffffffffffffffffffffffffffffffffff1673ffffffffffffffffffffffffffffffffffffffff166108fc6009549081150290604051600060405180830381858888f193505050501580156115d4573d6000803e3d6000fd5b50600b600083815260200190815260200160002060010160009054906101000a900473ffffffffffffffffffffffffffffffffffffffff1673ffffffffffffffffffffffffffffffffffffffff166108fc349081150290604051600060405180830381858888f19350505050158015611651573d6000803e3d6000fd5b505050565b606060006116646007611fec565b905060008060005b8381101561170c573373ffffffffffffffffffffffffffffffffffffffff16600b600060018461169c919061390a565b815260200190815260200160002060020160009054906101000a900473ffffffffffffffffffffffffffffffffffffffff1673ffffffffffffffffffffffffffffffffffffffff16036116f9576001836116f6919061390a565b92505b80806117049061393e565b91505061166c565b5060008267ffffffffffffffff811115611729576117286131ea565b5b60405190808252806020026020018201604052801561176257816020015b61174f612cb5565b8152602001906001900390816117475790505b50905060005b84811015611937573373ffffffffffffffffffffffffffffffffffffffff16600b6000600184611798919061390a565b815260200190815260200160002060020160009054906101000a900473ffffffffffffffffffffffffffffffffffffffff1673ffffffffffffffffffffffffffffffffffffffff16036119245760006001826117f4919061390a565b90506000600b60008381526020019081526020016000209050806040518060a0016040529081600082015481526020016001820160009054906101000a900473ffffffffffffffffffffffffffffffffffffffff1673ffffffffffffffffffffffffffffffffffffffff1673ffffffffffffffffffffffffffffffffffffffff1681526020016002820160009054906101000a900473ffffffffffffffffffffffffffffffffffffffff1673ffffffffffffffffffffffffffffffffffffffff1673ffffffffffffffffffffffffffffffffffffffff168152602001600382015481526020016004820160009054906101000a900460ff16151515158152505084868151811061190757611906613986565b5b602002602001018190525060018561191f919061390a565b945050505b808061192f9061393e565b915050611768565b508094505050505090565b606061194d82611b52565b600060066000848152602001908152602001600020805461196d906135b0565b80601f0160208091040260200160405190810160405280929190818152602001828054611999906135b0565b80156119e65780601f106119bb576101008083540402835291602001916119e6565b820191906000526020600020905b8154815290600101906020018083116119c957829003601f168201915b5050505050905060006119f76126fe565b90506000815103611a0c578192505050611a4f565b600082511115611a41578082604051602001611a29929190613cd9565b60405160208183030381529060405292505050611a4f565b611a4a84612715565b925050505b919050565b6000600560008473ffffffffffffffffffffffffffffffffffffffff1673ffffffffffffffffffffffffffffffffffffffff16815260200190815260200160002060008373ffffffffffffffffffffffffffffffffffffffff1673ffffffffffffffffffffffffffffffffffffffff16815260200190815260200160002060009054906101000a900460ff16905092915050565b60007f01ffc9a7000000000000000000000000000000000000000000000000000000007bffffffffffffffffffffffffffffffffffffffffffffffffffffffff1916827bffffffffffffffffffffffffffffffffffffffffffffffffffffffff1916149050919050565b611b5b8161277d565b611b9a576040517f08c379a0000000000000000000000000000000000000000000000000000000008152600401611b9190613a01565b60405180910390fd5b50565b600033905090565b816004600083815260200190815260200160002060006101000a81548173ffffffffffffffffffffffffffffffffffffffff021916908373ffffffffffffffffffffffffffffffffffffffff160217905550808273ffffffffffffffffffffffffffffffffffffffff16611c1883610c9e565b73ffffffffffffffffffffffffffffffffffffffff167f8c5be1e5ebec7d5bd14f71427d1e84f3dd0314c0f7b2291e5b200ac8c7c3b92560405160405180910390a45050565b600080611c6a83610c9e565b90508073ffffffffffffffffffffffffffffffffffffffff168473ffffffffffffffffffffffffffffffffffffffff161480611cac5750611cab8185611a54565b5b80611cea57508373ffffffffffffffffffffffffffffffffffffffff16611cd284610686565b73ffffffffffffffffffffffffffffffffffffffff16145b91505092915050565b8273ffffffffffffffffffffffffffffffffffffffff16611d1382610c9e565b73ffffffffffffffffffffffffffffffffffffffff1614611d69576040517f08c379a0000000000000000000000000000000000000000000000000000000008152600401611d6090613d6f565b60405180910390fd5b600073ffffffffffffffffffffffffffffffffffffffff168273ffffffffffffffffffffffffffffffffffffffff1603611dd8576040517f08c379a0000000000000000000000000000000000000000000000000000000008152600401611dcf90613e01565b60405180910390fd5b611de583838360016127be565b8273ffffffffffffffffffffffffffffffffffffffff16611e0582610c9e565b73ffffffffffffffffffffffffffffffffffffffff1614611e5b576040517f08c379a0000000000000000000000000000000000000000000000000000000008152600401611e5290613d6f565b60405180910390fd5b6004600082815260200190815260200160002060006101000a81549073ffffffffffffffffffffffffffffffffffffffff02191690556001600360008573ffffffffffffffffffffffffffffffffffffffff1673ffffffffffffffffffffffffffffffffffffffff168152602001908152602001600020600082825403925050819055506001600360008473ffffffffffffffffffffffffffffffffffffffff1673ffffffffffffffffffffffffffffffffffffffff16815260200190815260200160002060008282540192505081905550816002600083815260200190815260200160002060006101000a81548173ffffffffffffffffffffffffffffffffffffffff021916908373ffffffffffffffffffffffffffffffffffffffff160217905550808273ffffffffffffffffffffffffffffffffffffffff168473ffffffffffffffffffffffffffffffffffffffff167fddf252ad1be2c89b69c2b068fc378daa952ba7f163c4a11628f55a4df523b3ef60405160405180910390a4611fe783838360016128e4565b505050565b600081600001549050919050565b60006002600083815260200190815260200160002060009054906101000a900473ffffffffffffffffffffffffffffffffffffffff169050919050565b6001816000016000828254019250508190555050565b600073ffffffffffffffffffffffffffffffffffffffff168273ffffffffffffffffffffffffffffffffffffffff16036120bc576040517f08c379a00000000000000000000000000000000000000000000000000000000081526004016120b390613e6d565b60405180910390fd5b6120c58161277d565b15612105576040517f08c379a00000000000000000000000000000000000000000000000000000000081526004016120fc90613ed9565b60405180910390fd5b6121136000838360016127be565b61211c8161277d565b1561215c576040517f08c379a000000000000000000000000000000000000000000000000000000000815260040161215390613ed9565b60405180910390fd5b6001600360008473ffffffffffffffffffffffffffffffffffffffff1673ffffffffffffffffffffffffffffffffffffffff16815260200190815260200160002060008282540192505081905550816002600083815260200190815260200160002060006101000a81548173ffffffffffffffffffffffffffffffffffffffff021916908373ffffffffffffffffffffffffffffffffffffffff160217905550808273ffffffffffffffffffffffffffffffffffffffff16600073ffffffffffffffffffffffffffffffffffffffff167fddf252ad1be2c89b69c2b068fc378daa952ba7f163c4a11628f55a4df523b3ef60405160405180910390a46122666000838360016128e4565b5050565b6122738261277d565b6122b2576040517f08c379a00000000000000000000000000000000000000000000000000000000081526004016122a990613f6b565b60405180910390fd5b806006600084815260200190815260200160002090816122d29190614137565b505050565b6000811161231a576040517f08c379a000000000000000000000000000000000000000000000000000000000815260040161231190614255565b60405180910390fd5b600954341461235e576040517f08c379a0000000000000000000000000000000000000000000000000000000008152600401612355906142e7565b60405180910390fd5b6040518060a001604052808381526020013373ffffffffffffffffffffffffffffffffffffffff1681526020013073ffffffffffffffffffffffffffffffffffffffff16815260200182815260200160001515815250600b60008481526020019081526020016000206000820151816000015560208201518160010160006101000a81548173ffffffffffffffffffffffffffffffffffffffff021916908373ffffffffffffffffffffffffffffffffffffffff16021790555060408201518160020160006101000a81548173ffffffffffffffffffffffffffffffffffffffff021916908373ffffffffffffffffffffffffffffffffffffffff1602179055506060820151816003015560808201518160040160006101000a81548160ff021916908315150217905550905050612497333084611cf3565b817fdebdb32cb5230ab727c9c361b16fdb2015df225c10e6a3e7f60ecd5dc5be451633308460006040516124ce9493929190614307565b60405180910390a25050565b60008160000154905060008111612526576040517f08c379a000000000000000000000000000000000000000000000000000000000815260040161251d90614398565b60405180910390fd5b6001810382600001819055505050565b8173ffffffffffffffffffffffffffffffffffffffff168373ffffffffffffffffffffffffffffffffffffffff16036125a4576040517f08c379a000000000000000000000000000000000000000000000000000000000815260040161259b90614404565b60405180910390fd5b80600560008573ffffffffffffffffffffffffffffffffffffffff1673ffffffffffffffffffffffffffffffffffffffff16815260200190815260200160002060008473ffffffffffffffffffffffffffffffffffffffff1673ffffffffffffffffffffffffffffffffffffffff16815260200190815260200160002060006101000a81548160ff0219169083151502179055508173ffffffffffffffffffffffffffffffffffffffff168373ffffffffffffffffffffffffffffffffffffffff167f17307eab39ab6107e8899845ad3d59bd9653f200f220920489ca2b5937696c31836040516126959190612dc6565b60405180910390a3505050565b6126ad848484611cf3565b6126b9848484846128ea565b6126f8576040517f08c379a00000000000000000000000000000000000000000000000000000000081526004016126ef90614496565b60405180910390fd5b50505050565b606060405180602001604052806000815250905090565b606061272082611b52565b600061272a6126fe565b9050600081511161274a5760405180602001604052806000815250612775565b8061275484612a71565b604051602001612765929190613cd9565b6040516020818303038152906040525b915050919050565b60008073ffffffffffffffffffffffffffffffffffffffff1661279f83611ffa565b73ffffffffffffffffffffffffffffffffffffffff1614159050919050565b60018111156128de57600073ffffffffffffffffffffffffffffffffffffffff168473ffffffffffffffffffffffffffffffffffffffff16146128525780600360008673ffffffffffffffffffffffffffffffffffffffff1673ffffffffffffffffffffffffffffffffffffffff168152602001908152602001600020600082825461284a9190613bd7565b925050819055505b600073ffffffffffffffffffffffffffffffffffffffff168373ffffffffffffffffffffffffffffffffffffffff16146128dd5780600360008573ffffffffffffffffffffffffffffffffffffffff1673ffffffffffffffffffffffffffffffffffffffff16815260200190815260200160002060008282546128d5919061390a565b925050819055505b5b50505050565b50505050565b600061290b8473ffffffffffffffffffffffffffffffffffffffff16612b3f565b15612a64578373ffffffffffffffffffffffffffffffffffffffff1663150b7a02612934611b9d565b8786866040518563ffffffff1660e01b8152600401612956949392919061450b565b6020604051808303816000875af192505050801561299257506040513d601f19601f8201168201806040525081019061298f919061456c565b60015b612a14573d80600081146129c2576040519150601f19603f3d011682016040523d82523d6000602084013e6129c7565b606091505b506000815103612a0c576040517f08c379a0000000000000000000000000000000000000000000000000000000008152600401612a0390614496565b60405180910390fd5b805181602001fd5b63150b7a0260e01b7bffffffffffffffffffffffffffffffffffffffffffffffffffffffff1916817bffffffffffffffffffffffffffffffffffffffffffffffffffffffff191614915050612a69565b600190505b949350505050565b606060006001612a8084612b62565b01905060008167ffffffffffffffff811115612a9f57612a9e6131ea565b5b6040519080825280601f01601f191660200182016040528015612ad15781602001600182028036833780820191505090505b509050600082602001820190505b600115612b34578080600190039150507f3031323334353637383961626364656600000000000000000000000000000000600a86061a8153600a8581612b2857612b27614599565b5b04945060008503612adf575b819350505050919050565b6000808273ffffffffffffffffffffffffffffffffffffffff163b119050919050565b600080600090507a184f03e93ff9f4daa797ed6e38ed64bf6a1f0100000000000000008310612bc0577a184f03e93ff9f4daa797ed6e38ed64bf6a1f0100000000000000008381612bb657612bb5614599565b5b0492506040810190505b6d04ee2d6d415b85acef81000000008310612bfd576d04ee2d6d415b85acef81000000008381612bf357612bf2614599565b5b0492506020810190505b662386f26fc100008310612c2c57662386f26fc100008381612c2257612c21614599565b5b0492506010810190505b6305f5e1008310612c55576305f5e1008381612c4b57612c4a614599565b5b0492506008810190505b6127108310612c7a576127108381612c7057612c6f614599565b5b0492506004810190505b60648310612c9d5760648381612c9357612c92614599565b5b0492506002810190505b600a8310612cac576001810190505b80915050919050565b6040518060a0016040528060008152602001600073ffffffffffffffffffffffffffffffffffffffff168152602001600073ffffffffffffffffffffffffffffffffffffffff168152602001600081526020016000151581525090565b6000604051905090565b600080fd5b600080fd5b60007fffffffff0000000000000000000000000000000000000000000000000000000082169050919050565b612d5b81612d26565b8114612d6657600080fd5b50565b600081359050612d7881612d52565b92915050565b600060208284031215612d9457612d93612d1c565b5b6000612da284828501612d69565b91505092915050565b60008115159050919050565b612dc081612dab565b82525050565b6000602082019050612ddb6000830184612db7565b92915050565b600081519050919050565b600082825260208201905092915050565b60005b83811015612e1b578082015181840152602081019050612e00565b60008484015250505050565b6000601f19601f8301169050919050565b6000612e4382612de1565b612e4d8185612dec565b9350612e5d818560208601612dfd565b612e6681612e27565b840191505092915050565b60006020820190508181036000830152612e8b8184612e38565b905092915050565b6000819050919050565b612ea681612e93565b8114612eb157600080fd5b50565b600081359050612ec381612e9d565b92915050565b600060208284031215612edf57612ede612d1c565b5b6000612eed84828501612eb4565b91505092915050565b600073ffffffffffffffffffffffffffffffffffffffff82169050919050565b6000612f2182612ef6565b9050919050565b612f3181612f16565b82525050565b6000602082019050612f4c6000830184612f28565b92915050565b612f5b81612f16565b8114612f6657600080fd5b50565b600081359050612f7881612f52565b92915050565b60008060408385031215612f9557612f94612d1c565b5b6000612fa385828601612f69565b9250506020612fb485828601612eb4565b9150509250929050565b612fc781612e93565b82525050565b6000602082019050612fe26000830184612fbe565b92915050565b60008060006060848603121561300157613000612d1c565b5b600061300f86828701612f69565b935050602061302086828701612f69565b925050604061303186828701612eb4565b9150509250925092565b600081519050919050565b600082825260208201905092915050565b6000819050602082019050919050565b61307081612e93565b82525050565b600061308182612ef6565b9050919050565b61309181613076565b82525050565b6130a081612dab565b82525050565b60a0820160008201516130bc6000850182613067565b5060208201516130cf6020850182613088565b5060408201516130e26040850182613088565b5060608201516130f56060850182613067565b5060808201516131086080850182613097565b50505050565b600061311a83836130a6565b60a08301905092915050565b6000602082019050919050565b600061313e8261303b565b6131488185613046565b935061315383613057565b8060005b8381101561318457815161316b888261310e565b975061317683613126565b925050600181019050613157565b5085935050505092915050565b600060208201905081810360008301526131ab8184613133565b905092915050565b6000602082840312156131c9576131c8612d1c565b5b60006131d784828501612f69565b91505092915050565b600080fd5b600080fd5b7f4e487b7100000000000000000000000000000000000000000000000000000000600052604160045260246000fd5b61322282612e27565b810181811067ffffffffffffffff82111715613241576132406131ea565b5b80604052505050565b6000613254612d12565b90506132608282613219565b919050565b600067ffffffffffffffff8211156132805761327f6131ea565b5b61328982612e27565b9050602081019050919050565b82818337600083830152505050565b60006132b86132b384613265565b61324a565b9050828152602081018484840111156132d4576132d36131e5565b5b6132df848285613296565b509392505050565b600082601f8301126132fc576132fb6131e0565b5b813561330c8482602086016132a5565b91505092915050565b6000806040838503121561332c5761332b612d1c565b5b600083013567ffffffffffffffff81111561334a57613349612d21565b5b613356858286016132e7565b925050602061336785828601612eb4565b9150509250929050565b6000806040838503121561338857613387612d1c565b5b600061339685828601612eb4565b92505060206133a785828601612eb4565b9150509250929050565b6133ba81612dab565b81146133c557600080fd5b50565b6000813590506133d7816133b1565b92915050565b600080604083850312156133f4576133f3612d1c565b5b600061340285828601612f69565b9250506020613413858286016133c8565b9150509250929050565b600067ffffffffffffffff821115613438576134376131ea565b5b61344182612e27565b9050602081019050919050565b600061346161345c8461341d565b61324a565b90508281526020810184848401111561347d5761347c6131e5565b5b613488848285613296565b509392505050565b600082601f8301126134a5576134a46131e0565b5b81356134b584826020860161344e565b91505092915050565b600080600080608085870312156134d8576134d7612d1c565b5b60006134e687828801612f69565b94505060206134f787828801612f69565b935050604061350887828801612eb4565b925050606085013567ffffffffffffffff81111561352957613528612d21565b5b61353587828801613490565b91505092959194509250565b6000806040838503121561355857613557612d1c565b5b600061356685828601612f69565b925050602061357785828601612f69565b9150509250929050565b7f4e487b7100000000000000000000000000000000000000000000000000000000600052602260045260246000fd5b600060028204905060018216806135c857607f821691505b6020821081036135db576135da613581565b5b50919050565b7f4552433732313a20617070726f76616c20746f2063757272656e74206f776e6560008201527f7200000000000000000000000000000000000000000000000000000000000000602082015250565b600061363d602183612dec565b9150613648826135e1565b604082019050919050565b6000602082019050818103600083015261366c81613630565b9050919050565b7f4552433732313a20617070726f76652063616c6c6572206973206e6f7420746f60008201527f6b656e206f776e6572206f7220617070726f76656420666f7220616c6c000000602082015250565b60006136cf603d83612dec565b91506136da82613673565b604082019050919050565b600060208201905081810360008301526136fe816136c2565b9050919050565b7f4552433732313a2063616c6c6572206973206e6f7420746f6b656e206f776e6560008201527f72206f7220617070726f76656400000000000000000000000000000000000000602082015250565b6000613761602d83612dec565b915061376c82613705565b604082019050919050565b6000602082019050818103600083015261379081613754565b9050919050565b7f6f6e6c79206f776e6572206f6620746865206d61726b6574706c61636520636160008201527f6e206368616e676520746865206c697374696e67207072696365000000000000602082015250565b60006137f3603a83612dec565b91506137fe82613797565b604082019050919050565b60006020820190508181036000830152613822816137e6565b9050919050565b600081905092915050565b50565b6000613844600083613829565b915061384f82613834565b600082019050919050565b600061386582613837565b9150819050919050565b7f5472616e73666572204661696c65640000000000000000000000000000000000600082015250565b60006138a5600f83612dec565b91506138b08261386f565b602082019050919050565b600060208201905081810360008301526138d481613898565b9050919050565b7f4e487b7100000000000000000000000000000000000000000000000000000000600052601160045260246000fd5b600061391582612e93565b915061392083612e93565b9250828201905080821115613938576139376138db565b5b92915050565b600061394982612e93565b91507fffffffffffffffffffffffffffffffffffffffffffffffffffffffffffffffff820361397b5761397a6138db565b5b600182019050919050565b7f4e487b7100000000000000000000000000000000000000000000000000000000600052603260045260246000fd5b7f4552433732313a20696e76616c696420746f6b656e2049440000000000000000600082015250565b60006139eb601883612dec565b91506139f6826139b5565b602082019050919050565b60006020820190508181036000830152613a1a816139de565b9050919050565b7f4552433732313a2061646472657373207a65726f206973206e6f74206120766160008201527f6c6964206f776e65720000000000000000000000000000000000000000000000602082015250565b6000613a7d602983612dec565b9150613a8882613a21565b604082019050919050565b60006020820190508181036000830152613aac81613a70565b9050919050565b7f4f6e6c79206974656d206f776e65722063616e20706572666f726d207468697360008201527f206f7065726174696f6e00000000000000000000000000000000000000000000602082015250565b6000613b0f602a83612dec565b9150613b1a82613ab3565b604082019050919050565b60006020820190508181036000830152613b3e81613b02565b9050919050565b7f5072696365206d75737420626520657175616c20746f206c697374696e67207060008201527f7269636500000000000000000000000000000000000000000000000000000000602082015250565b6000613ba1602483612dec565b9150613bac82613b45565b604082019050919050565b60006020820190508181036000830152613bd081613b94565b9050919050565b6000613be282612e93565b9150613bed83612e93565b9250828203905081811115613c0557613c046138db565b5b92915050565b7f506c65617365207375626d6974207468652061736b696e67207072696365206960008201527f6e206f7264657220746f20636f6d706c65746520746865207075726368617365602082015250565b6000613c67604083612dec565b9150613c7282613c0b565b604082019050919050565b60006020820190508181036000830152613c9681613c5a565b9050919050565b600081905092915050565b6000613cb382612de1565b613cbd8185613c9d565b9350613ccd818560208601612dfd565b80840191505092915050565b6000613ce58285613ca8565b9150613cf18284613ca8565b91508190509392505050565b7f4552433732313a207472616e736665722066726f6d20696e636f72726563742060008201527f6f776e6572000000000000000000000000000000000000000000000000000000602082015250565b6000613d59602583612dec565b9150613d6482613cfd565b604082019050919050565b60006020820190508181036000830152613d8881613d4c565b9050919050565b7f4552433732313a207472616e7366657220746f20746865207a65726f2061646460008201527f7265737300000000000000000000000000000000000000000000000000000000602082015250565b6000613deb602483612dec565b9150613df682613d8f565b604082019050919050565b60006020820190508181036000830152613e1a81613dde565b9050919050565b7f4552433732313a206d696e7420746f20746865207a65726f2061646472657373600082015250565b6000613e57602083612dec565b9150613e6282613e21565b602082019050919050565b60006020820190508181036000830152613e8681613e4a565b9050919050565b7f4552433732313a20746f6b656e20616c7265616479206d696e74656400000000600082015250565b6000613ec3601c83612dec565b9150613ece82613e8d565b602082019050919050565b60006020820190508181036000830152613ef281613eb6565b9050919050565b7f45524337323155524953746f726167653a2055524920736574206f66206e6f6e60008201527f6578697374656e7420746f6b656e000000000000000000000000000000000000602082015250565b6000613f55602e83612dec565b9150613f6082613ef9565b604082019050919050565b60006020820190508181036000830152613f8481613f48565b9050919050565b60008190508160005260206000209050919050565b60006020601f8301049050919050565b600082821b905092915050565b600060088302613fed7fffffffffffffffffffffffffffffffffffffffffffffffffffffffffffffffff82613fb0565b613ff78683613fb0565b95508019841693508086168417925050509392505050565b6000819050919050565b600061403461402f61402a84612e93565b61400f565b612e93565b9050919050565b6000819050919050565b61404e83614019565b61406261405a8261403b565b848454613fbd565b825550505050565b600090565b61407761406a565b614082818484614045565b505050565b5b818110156140a65761409b60008261406f565b600181019050614088565b5050565b601f8211156140eb576140bc81613f8b565b6140c584613fa0565b810160208510156140d4578190505b6140e86140e085613fa0565b830182614087565b50505b505050565b600082821c905092915050565b600061410e600019846008026140f0565b1980831691505092915050565b600061412783836140fd565b9150826002028217905092915050565b61414082612de1565b67ffffffffffffffff811115614159576141586131ea565b5b61416382546135b0565b61416e8282856140aa565b600060209050601f8311600181146141a1576000841561418f578287015190505b614199858261411b565b865550614201565b601f1984166141af86613f8b565b60005b828110156141d7578489015182556001820191506020850194506020810190506141b2565b868310156141f457848901516141f0601f8916826140fd565b8355505b6001600288020188555050505b505050505050565b7f5072696365206d75737420626520616c206c6573742031000000000000000000600082015250565b600061423f601783612dec565b915061424a82614209565b602082019050919050565b6000602082019050818103600083015261426e81614232565b9050919050565b7f50726963206d75737420626520657175616c20746f206c697374696e6720707260008201527f6963650000000000000000000000000000000000000000000000000000000000602082015250565b60006142d1602383612dec565b91506142dc82614275565b604082019050919050565b60006020820190508181036000830152614300816142c4565b9050919050565b600060808201905061431c6000830187612f28565b6143296020830186612f28565b6143366040830185612fbe565b6143436060830184612db7565b95945050505050565b7f436f756e7465723a2064656372656d656e74206f766572666c6f770000000000600082015250565b6000614382601b83612dec565b915061438d8261434c565b602082019050919050565b600060208201905081810360008301526143b181614375565b9050919050565b7f4552433732313a20617070726f766520746f2063616c6c657200000000000000600082015250565b60006143ee601983612dec565b91506143f9826143b8565b602082019050919050565b6000602082019050818103600083015261441d816143e1565b9050919050565b7f4552433732313a207472616e7366657220746f206e6f6e20455243373231526560008201527f63656976657220696d706c656d656e7465720000000000000000000000000000602082015250565b6000614480603283612dec565b915061448b82614424565b604082019050919050565b600060208201905081810360008301526144af81614473565b9050919050565b600081519050919050565b600082825260208201905092915050565b60006144dd826144b6565b6144e781856144c1565b93506144f7818560208601612dfd565b61450081612e27565b840191505092915050565b60006080820190506145206000830187612f28565b61452d6020830186612f28565b61453a6040830185612fbe565b818103606083015261454c81846144d2565b905095945050505050565b60008151905061456681612d52565b92915050565b60006020828403121561458257614581612d1c565b5b600061459084828501614557565b91505092915050565b7f4e487b7100000000000000000000000000000000000000000000000000000000600052601260045260246000fdfea26469706673582212200c03380a738d7f6be3c6d134a6cfc607704e943bd59f6b3280a8f8955f341a1264736f6c63430008110033",
  "linkReferences": {},
  "deployedLinkReferences": {}
}